:100000000C9461000C9489000C9489000C94890074
:100010000C9489000C9489000C9489000C9489003C
:100020000C9489000C9489000C9489000C9489002C
:100030000C9489000C9489000C9489000C9489001C
:100040000C9427060C9489000C9497060C94710666
:100050000C9489000C9489000C9489000C948900FC
:100060000C9489000C9489005A7375744574686502
:10007000726E65745544503A3A626567696E5061B4
:10008000636B657428636F6E73742063686172209C
:100090002A686F73742C2075696E7431365F742012
:1000A000706F7274293B206973206E6F74207375B2
:1000B00070706F727465642120536F7272792100C1
:1000C000C90611241FBECFEFD8E0DEBFCDBF11E0BF
:1000D000A0E0B1E0ECEDF0E102C005900D92AC388B
:1000E000B107D9F726E0ACE8B1E001C01D92A13814
:1000F000B207E1F710E0C1E6D0E004C02197FE01AD
:100100000E945F08C036D107C9F70E943C070C94D3
:100110006C080C940000AF92BF92CF92DF92EF92E6
:10012000FF920F931F93CF93DF936C017B018B01A1
:10013000040F151FEB015E01AE18BF08C017D107F1
:1001400059F06991D601ED91FC910190F081E02D7B
:10015000C6010995892B79F7C501DF91CF911F91D0
:100160000F91FF90EF90DF90CF90BF90AF900895E8
:10017000FC01538D448D252F30E0842F90E0821BAD
:10018000930B541710F0CF96089501970895FC0132
:10019000918D828D981761F0A28DAE0FBF2FB11D8A
:1001A0005D968C91928D9F5F9F73928F90E00895E2
:1001B0008FEF9FEF0895FC01918D828D981731F09C
:1001C000828DE80FF11D858D90E008958FEF9FEFF0
:1001D0000895FC01918D228D892F90E0805C9F4FC6
:1001E000821B91098F739927089583EA95E00E94F5
:1001F000E90021E0892B09F420E0822F089580E0B6
:1002000090E0892B29F00E94F50081110C940000E8
:100210000895FC01A48DA80FB92FB11DA35ABF4F9B
:100220002C91848D90E001968F739927848FA689F5
:10023000B7892C93A089B1898C91837080648C9349
:10024000938D848D981306C00288F389E02D8081F8
:100250008F7D80830895EF92FF920F931F93CF932A
:10026000DF93EC0181E0888F9B8D8C8D98131AC0F1
:10027000E889F989808185FF15C09FB7F894EE89D8
:10028000FF896083E889F989808183708064808335
:100290009FBF81E090E0DF91CF911F910F91FF9080
:1002A000EF900895F62E0B8D10E00F5F1F4F0F7328
:1002B0001127E02E8C8D8E110CC00FB607FCFACFE3
:1002C000E889F989808185FFF5CFCE010E94090177
:1002D000F1CFEB8DEC0FFD2FF11DE35AFF4FF082B4
:1002E0009FB7F8940B8FEA89FB8980818062CFCF1A
:1002F000CF93DF93EC01888D8823B9F0AA89BB895D
:10030000E889F9898C9185FD03C0808186FD0DC047
:100310000FB607FCF7CF8C9185FFF2CF808185FF68
:10032000EDCFCE010E940901E9CFDF91CF91089571
:1003300081E0089587E08CBF95EE9BBF1ABE8CBF0D
:1003400086EE8BBF1ABE089590E080E0089597E096
:100350009CBF87EE8BBF2AB79CBF88EE8BBF8AB746
:10036000322F282F9CBF85EE8BBF8AB79CBF96EE9D
:100370009BBF9AB7892798278927821B930B481719
:10038000590708F4CA01A9014751584FFB01DB0185
:10039000A80FB91FEA17FB0739F05CBF4BBF6AB75C
:1003A00061934F5F5F4FF6CF280F391F47E04CBF77
:1003B00057EE5BBF3ABF4CBF38EE3BBF2ABF089534
:1003C000CF93DF931F92CDB7DEB7DC01ED91FC91A7
:1003D000028CF38DE02D41E050E0BE016F5F7F4F56
:1003E00009951816190634F4898190E00F90DF9171
:1003F000CF9108958FEF9FEFF9CFFC0197E09CBF5D
:1004000085EE8BBF8AB79CBF26EE2BBF6AB79CBF19
:1004100027EE2BBF2AB79CBF98EE9BBF3AB71CBEF6
:1004200090E19BBF9AB71CBE4FE04BBF4AB71CBEC2
:100430005EE05BBF5AB71CBE7DE07BBF7AB7708BB6
:10044000518B428B938B1CBE91E19BBF4AB71CBE64
:1004500092E19BBF9AB7542F492F558B448B982F0D
:10046000862F232732272327821B930B08951CBE38
:1004700083E18BBF8AB71CBE94E19BBF9AB78927E3
:1004800098278927FB019C012B5E3F4FDB01A40FBE
:10049000B51FEA17FB0739F061913CBF2BBF6ABF5C
:1004A0002F5F3F4FF6CF480F591F1CBE83E18BBF14
:1004B0005ABF1CBE84E18BBF4ABF90E080E0089524
:1004C000CF93DF931F92CDB7DEB76983DC01ED9147
:1004D000FC910280F381E02D41E050E0BE016F5FAE
:1004E0007F4F09950F90DF91CF9108951CBE1BBEE1
:1004F0008FEF8ABF1CBE1BBE82E08ABF90E080E007
:100500000895FB0132812381948185811CBE1BBE2D
:1005100061E06ABF1CBE6DE06BBF3ABF1CBE3EE02F
:100520003BBF2ABF1CBE2FE02BBF9ABF1CBE90E171
:100530009BBF8ABF1CBE81E18BBF5ABF1CBE82E13C
:100540008BBF4ABF81E090E008950895DC01ED91F2
:10055000FC91008CF18DE02D09941CBE8BE08BBFCB
:100560007ABF1CBE8CE08BBF6ABF1CBE1BBE83E083
:100570008ABF81E00895FC018489958908952EE35E
:1005800031E0FC0131832083FB014089518962897C
:100590007389FC0142835383648375830895DC016E
:1005A000ED91FC91028CF38DE02D099490E080E0B8
:1005B0000895CF93DF93CDB7DEB72B970FB6F8949E
:1005C000DEBF0FBECDBF84E18F8381E088871986AF
:1005D0001A8685E18B878EE391E09A83898380EC8C
:1005E0008B8388EA8C8389E58D838AE08E8340E45F
:1005F0005FE1BE016F5F7F4F80E696E00E9481025F
:1006000045E050E0BE01695F7F4F80E696E00E94C2
:10061000370280E696E00E9476022B960FB6F89499
:10062000DEBF0FBECDBFDF91CF910895FB010190DA
:100630000020E9F73197AF01461B570BDC01ED9124
:10064000FC910280F381E02D09948F929F92AF92EA
:10065000BF92EF92FF920F931F93CF93DF93CDB78B
:10066000DEB7A1970FB6F894DEBF0FBECDBF7C01F9
:10067000FA01CB0119A2223008F42AE08E010F5DA5
:100680001F4F822E912CB12CA12CBF01A5019401EA
:100690000E943D08F901CA016A300CF5605DD8017D
:1006A0006E938D01232B242B252B79F790E080E08E
:1006B000109721F0BD01C7010E941603A1960FB645
:1006C000F894DEBF0FBECDBFDF91CF911F910F9188
:1006D000FF90EF90BF90AF909F908F900895695CCE
:1006E000DECFCF92DF92EF92FF92CF93DF936B0139
:1006F0007C016DE283EA95E00E942B01EC01442726
:100700005527BA014C195D096E097F092AE083EA71
:1007100095E00E9425038C0F9D1FDF91CF91FF90E4
:10072000EF90DF90CF900895AC01990F660B770B97
:1007300077FF04C0CB01BA010C9471032AE083EA6D
:1007400095E00C9425038F929F92AF92BF92CF9227
:10075000DF92EF92FF920F931F93CF93DF937C0171
:10076000EB016C0182E0C80ED11C4701E5E08E0E62
:10077000911C10E000E0F60141916F0150E070E043
:1007800060E02AE0CE010E9425035C01E881F98146
:100790000190F081E02D6EE2CE0109958A0D9B1D3E
:1007A000080F191FC814D90431F7F701458150E02B
:1007B00070E060E02AE0CE010E942503800F911FC7
:1007C000DF91CF911F910F91FF90EF90DF90CF902D
:1007D000BF90AF909F908F900895CF93DF93BC010F
:1007E00083EA95E00E941603EC0160E471E083EA7D
:1007F00095E00E9416038C0F9D1FDF91CF91089505
:10080000CF93DF93C8E6D0E0FE016491662339F010
:1008100083EA95E00E942B012196892BA9F760E4D9
:1008200071E083EA95E00E941603989590E080E0DD
:10083000DF91CF9108952F923F925F926F927F92B6
:100840008F929F92AF92BF92CF92DF92EF92FF92E0
:100850000F931F93CF93DF93CDB7DEB7C455D54029
:100860000FB6F894DEBF0FBECDBF80E696E00E94C3
:10087000FD01181619060CF087C0AC0181309140BB
:1008800014F040E051E08E01035B1B4FB80180E69D
:1008900096E00E94A701D8018C918F70282F30E03C
:1008A000823009F090C00E94D902F8012481622FA1
:1008B00070E070939901609398018581482F50E012
:1008C00050939701409396019681292F30E0309301
:1008D0009501209394019781892F90E09093930143
:1008E0008093920135952795260F371F30939101FC
:1008F0002093900195958795840F951F90938F0174
:1009000080938E0110928D0110928C0163E471E04E
:1009100083EA95E00E9416038091980190919901D5
:100920000E9494036EE471E083EA95E00E9416034E
:1009300080919601909197010E94940363E571E084
:1009400083EA95E00E9416038091940190919501AD
:100950000E94940367E571E083EA95E00E94160324
:100960004091920150919301052E000C660B770B7C
:1009700077FF23C0CB01BA010E94710360E471E0EC
:1009800083EA95E00E941603CC5ADA4F0FB6F8942A
:10099000DEBF0FBECDBFDF91CF911F910F91FF90B2
:1009A000EF90DF90CF90BF90AF909F908F907F900F
:1009B0006F905F903F902F9008952AE083EA95E032
:1009C0000E942503DBCF2330310509F0A0C00E942F
:1009D000D902D8011296ED90FC90FE24EF24FE245B
:1009E0006BE571E083EA95E00E941603C7010E945F
:1009F000940381E691E00E94ED0380918C01909137
:100A00008D0120918E0130918F0140919001509184
:100A1000910120909801309099016090940170901C
:100A20009501620C731CE0919601F0919701CD5AEB
:100A3000DA4FF983E883C355D540809092019090B6
:100A400093018E0E9F1EF801B3E25B2E6F01C01A58
:100A5000D10ACE14DF046CF090938D0180938C0149
:100A600030938F0120938E01509391014093900118
:100A70008BCFD480A6E4CA2EDC103CC0009741F591
:100A800021503109421553050CF146155705F4F470
:100A9000CD5ADA4F68817981C355D540261737077B
:100AA000ACF02815390594F45901A61AB70A75E077
:100AB000AA0CBB1C7A95E1F7D501A656BE4F6A0178
:100AC000C218D308CA0EDB1ED6015C923196BECF87
:100AD0008130910519F44F5F5F4FD4CF823091057B
:100AE00019F42F5F3F4FCECF8330910559F6415017
:100AF0005109C8CFBBE2DB1204C00196837099276D
:100B0000E5CF6DE2C62EDC10E1CF0396F7CF25309E
:100B1000310509F039CF0E94D9028091940190915A
:100B200095012091920130919301829FA001839FB2
:100B3000500D929F500D112466E1698361E06A8334
:100B40005B834C836AE971E0B12CA12CA4E0B0E096
:100B50008E010F5F1F4FA216B30604F57801EA0E4F
:100B6000FB1E50E040E0481759075CF46B01C40ECF
:100B7000D51EF601D080F701D1927F014F5F5F4F04
:100B8000F2CFAC0197FF02C050E040E0A40FB51FC8
:100B9000FFEFAF1ABF0A605E7F4FDDCF97FF02C045
:100BA00090E080E037FF02C030E020E0829F7001DB
:100BB000839FF00C929FF00C1124F701349645E0CE
:100BC000E40EF11CD80180E09D91890F9D01201B4E
:100BD000310B2E153F05C4F3E00FF11F80838EE328
:100BE00091E0C35BDA4F99838883CD54D54080EC84
:100BF000C15BDA4F8883CF54D54088EAC05BDA4FB7
:100C00008883C055D54089E5CF5ADA4F8883C155CE
:100C1000D5408AE0CE5ADA4F8883C255D54040E4A9
:100C20005FE1BE01635B7A4F80E696E00E9481023D
:100C3000A701B80180E696E00E94370280E696E0C0
:100C40000E94760288E691E00E94ED039DCE1F92FD
:100C50000F920FB60F9211242F933F938F939F9370
:100C6000AF93BF9380919F059091A005A091A1059E
:100C7000B091A20530919E0523E0230F2D3758F542
:100C80000196A11DB11D20939E0580939F05909311
:100C9000A005A093A105B093A20580919A0590911B
:100CA0009B05A0919C05B0919D050196A11DB11DCC
:100CB00080939A0590939B05A0939C05B0939D0506
:100CC000BF91AF919F918F913F912F910F900FBE48
:100CD0000F901F90189526E8230F0296A11DB11DB5
:100CE000D2CF1F920F920FB60F9211242F933F93E2
:100CF0004F935F936F937F938F939F93AF93BF9324
:100D0000EF93FF9383EA95E00E940901FF91EF9131
:100D1000BF91AF919F918F917F916F915F914F9113
:100D20003F912F910F900FBE0F901F9018951F921B
:100D30000F920FB60F9211242F938F939F93EF93DF
:100D4000FF93E091B305F091B4058081E091B9057E
:100D5000F091BA0582FD1BC090818091BC058F5F28
:100D60008F732091BD05821741F0E091BC05F0E042
:100D7000ED55FA4F958F8093BC05FF91EF919F91B0
:100D80008F912F910F900FBE0F901F90189580811B
:100D9000F4CFE3EAF5E01382128248EE53E060E01C
:100DA00070E0448355836683778384E091E0918388
:100DB000808385EC90E09587848784EC90E097872A
:100DC000868780EC90E0918B808B81EC90E0938B18
:100DD000828B82EC90E0958B848B86EC90E0978BF5
:100DE000868B118E128E138E148EE0E4F6E08EE365
:100DF00091E0918380831282138214821582EEE443
:100E0000F6E0918380831282138214821582E6E4D5
:100E1000F6E0918380831282138214821582E4E5C6
:100E2000F6E0918380831282138214821582EAE5B0
:100E3000F6E0918380831282138214821582EBE79D
:100E4000F6E0918380831282138214821582E0E699
:100E5000F6E013821282448355836683778326E10A
:100E600031E03183208397878687108A118A128A1E
:100E7000138A84E0808F0895CF93DF93CDB7DEB7D8
:100E80002E970FB6F894DEBF0FBECDBF789484B511
:100E9000826084BD84B5816084BD85B5826085BD76
:100EA00085B5816085BD80916E00816080936E0004
:100EB00010928100809181008260809381008091F6
:100EC00081008160809381008091800081608093A7
:100ED00080008091B10084608093B1008091B00067
:100EE00081608093B00080917A00846080937A0062
:100EF00080917A00826080937A0080917A0081608C
:100F000080937A0080917A00806880937A001092B2
:100F1000C100E091B305F091B40582E08083E091D7
:100F2000AF05F091B0051082E091B105F091B205E6
:100F30008FEC80831092BB05E091B705F091B80566
:100F400086E08083E091B505F091B60580818061EF
:100F50008083E091B505F091B6058081886080833B
:100F6000E091B505F091B605808180688083E091BD
:100F7000B505F091B60580818F7D808318E01093D0
:100F800048061093490610934A0610934B0660E4F6
:100F90007FE180E696E00E94AD0264E771E083EABB
:100FA00095E00E9416038EE3E82E81E0F82EFA8287
:100FB000E9821B821C821D821E821CBE0AE00BBFBE
:100FC0008AB71CBE99E09BBF9AB71CBE1BBF2AB74D
:100FD0001CBE37E03BBF3AB73B832C839D838E8397
:100FE00063EA75E0CE0101960E94A30360E471E01C
:100FF00083EA95E00E94160340E054E06EE270E060
:101000008AE991E00E94650881E1898381E08A8311
:101010001B821C8282E18D83FA86E98680EC8B87B5
:1010200088EA8C8789E58D870E8740E45FE1BE0101
:10103000675F7F4F80E696E00E94810245E050E0C6
:10104000BE016F5F7F4F80E696E00E94370280E628
:1010500096E00E9476028EE791E00E94ED0300E0A8
:1010600010E00E941B0401151105D9F30E94F50040
:101070008823B9F30E940000F4CFA1E21A2EAA1B24
:10108000BB1BFD010DC0AA1FBB1FEE1FFF1FA21738
:10109000B307E407F50720F0A21BB30BE40BF50B35
:1010A000661F771F881F991F1A9469F760957095BE
:1010B000809590959B01AC01BD01CF010895EE0F85
:1010C000FF1F0590F491E02D0994DC0101C06D93A0
:0C10D00041505040E0F70895F894FFCF25
:1010DC00000000002B018B00B8007801E900C7006C
:1010EC00DB000000000060023702D6029A01A60263
:1010FC00E001A401AD02A502810200047602FD010B
:10110C00A701CF02BF02BB02980100000000A3039D
:10111C000D0A0041535349474E2072783D0020720E
:10112C00793D0020773D0020683D0044415441202A
:10113C000020627974657300526567696F6E207365
:10114C00656E74004E6F64652049503A200052451C
:0C115C004749535445522073656E7400DF
:00000001FF
